:100000000C9434000C9451000C9451000C94510049
:100010000C9451000C9451000C9451000C9451001C
:100020000C9451000C9451000C9451000C9451000C
:100030000C9451000C9451000C9451000C945100FC
:100040000C9451000C9451000C9451000C945100EC
:100050000C9451000C9451000C9451000C945100DC
:100060000C9451000C94510011241FBECFEFD8E026
:10007000DEBFCDBF11E0A0E0B1E0ECE3F8E002C0EC
:1000800005900D92A633B107D9F721E0A6E3B1E0C0
:1000900001C01D92AD33B207E1F70E94E0000C945D
:1000A0001C040C94000085B5816085BD8FEC94E83C
:1000B0000197F1F700C0000085B58E7F85BD87E60A
:1000C00092E40197F1F700C00000089585B58160C2
:1000D00085BD8FE099E00197F1F700C0000085B57C
:1000E0008E7F85BD089585B5816085BD8FEB98E0D5
:1000F0000197F1F700C0000085B58E7F85BD87E5CB
:1001000098E00197F1F700C00000089585B581607F
:1001100085BD8FEB98E00197F1F700C0000085B531
:100120008E7F85BD8FEF98E10197F1F700C0000049
:100130000895A2E0B0E0EFE9F0E00C942B01898390
:100140009A830E9453008981C82E9A81D92E760104
:1001500087E0E80EF11CF60101916F0114E003FF46
:1001600003C00E94860002C00E947300000F11505D
:10017000B1F7CE14DF0479F70E9466002296E8E01A
:100180000C9447018091C00087FFFCCF8091C6008E
:1001900008959091C00095FFFCCF8093C60008950C
:1001A0009093C5008093C40088E18093C100E7E389
:1001B000F1E08EE091E091838083938382830895C0
:1001C00083E390E00E94D000259A5D98569A5E9A4B
:1001D00084B5826484BD83ED87BDCCE1D1E02AEA99
:1001E00036EE86E991E02150304080409040D9F7CA
:1001F000000087E091E00E949900809136011F92F3
:100200008F93DF93CF930E9458018AEA96EE26E9F6
:1002100031E08150904020403040D9F700000F90ED
:100220000F900F900F9080E091E00E94990080E382
:1002300091E00E946E01809136018F5F80933601BC
:10024000CECF2F923F924F925F926F927F928F927A
:100250009F92AF92BF92CF92DF92EF92FF920F9355
:100260001F93CF93DF93CDB7DEB7CA1BDB0B0FB65F
:10027000F894DEBF0FBECDBF09942A88398848881C
:100280005F846E847D848C849B84AA84B984C884B2
:10029000DF80EE80FD800C811B81AA81B981CE0FA9
:1002A000D11D0FB6F894DEBF0FBECDBFED0108958E
:1002B000A0E0B0E0EEE5F1E00C943101AE014B5F5F
:1002C0005F4FFA0161917191AF0180913901909175
:1002D0003A010E949E01E2E00C944D010F931F939E
:1002E000CF93DF93E0913901F0913A01238121FF0F
:1002F0001BC08C01D0E0C0E0F80181918F016091BA
:10030000390170913A01DB011896ED91FC91199732
:10031000882331F00995892B79F3DFEFCFEFECCF0C
:100320008AE00995892B19F08FEF9FEF02C08D2F7E
:100330009C2FDF91CF911F910F910895ACE0B0E019
:10034000E4EAF1E00C9421017C016B018A01FC01DB
:1003500017821682838181FFBDC1CE0101964C01B7
:10036000F7019381F60193FD859193FF81916F01D0
:10037000882309F4ABC1853239F493FD859193FF4D
:1003800081916F01853229F4B70190E00E948603C4
:10039000E7CF512C312C20E02032A0F48B3269F0D1
:1003A00030F4803259F0833269F420612CC08D32F0
:1003B00039F0803339F4216026C02260246023C0E4
:1003C000286021C027FD27C030ED380F3A3078F47F
:1003D00026FF06C0FAE05F9E300D1124532E13C095
:1003E0008AE0389E300D1124332E20620CC08E32EC
:1003F00021F426FD6BC1206406C08C3611F4206800
:1004000002C0883641F4F60193FD859193FF8191F6
:100410006F018111C1CF982F9F7D9554933028F49F
:100420000C5F1F4FFFE3F9830DC0833631F0833734
:1004300071F0833509F05BC022C0F80180818983A7
:100440000E5F1F4F44244394512C540115C03801B2
:10045000F2E06F0E711CF801A080B18026FF03C08E
:10046000652D70E002C06FEF7FEFC5012C870E9401
:100470007B032C0183012C852F77222E17C0380196
:10048000F2E06F0E711CF801A080B18026FF03C05E
:10049000652D70E002C06FEF7FEFC5012C870E94D1
:1004A00070032C012C852068222E830123FC1BC0A5
:1004B000832D90E048165906B0F4B70180E290E031
:1004C0000E9486033A94F4CFF50127FC859127FE1C
:1004D00081915F01B70190E00E94860331103A9448
:1004E000F1E04F1A51084114510471F7E5C0843608
:1004F00011F0893639F5F80127FF07C06081718155
:10050000828193810C5F1F4F08C060817181072E2B
:10051000000C880B990B0E5F1F4F2F76722E97FFE2
:1005200009C090958095709561957F4F8F4F9F4F33
:100530002068722E2AE030E0A4010E94BE03A82E9B
:10054000A81844C0853729F42F7EB22E2AE030E067
:1005500025C0F22FF97FBF2E8F36C1F018F48835F1
:1005600079F0B4C0803719F0883721F0AFC02F2F51
:100570002061B22EB4FE0DC08B2D8460B82E09C050
:1005800024FF0AC09F2F9660B92E06C028E030E0F5
:1005900005C020E130E002C020E132E0F801B7FE02
:1005A00007C060817181828193810C5F1F4F06C0FB
:1005B0006081718180E090E00E5F1F4FA4010E9476
:1005C000BE03A82EA818FB2DFF777F2E76FE0BC04A
:1005D000372D3E7FA51450F474FE0AC072FC08C08B
:1005E000372D3E7E05C0BA2C372D03C0BA2C01C072
:1005F000B52C34FF0DC0FE01EA0DF11D8081803362
:1006000011F4397E09C032FF06C0B394B39404C01C
:10061000832F867809F0B39433FD13C030FF06C0F2
:100620005A2CB31418F4530C5B18B32CB31468F49D
:10063000B70180E290E03C870E948603B3943C853A
:10064000F5CFB31410F43B1801C0312C34FF12C0A5
:10065000B70180E390E03C870E9486033C8532FF2F
:1006600017C031FD03C088E790E002C088E590E044
:10067000B7010CC0832F867859F031FF02C08BE29E
:1006800001C080E237FD8DE2B70190E00E94860351
:10069000A51438F4B70180E390E00E9486035A94D1
:1006A000F7CFAA94F401EA0DF11D8081B70190E023
:1006B0000E948603A110F5CF332009F451CEB70173
:1006C00080E290E00E9486033A94F6CFF70186819B
:1006D000978102C08FEF9FEF2C96E2E10C943D01D1
:1006E000FC010590615070400110D8F780959095FD
:1006F0008E0F9F1F0895FC01615070400190011002
:10070000D8F7809590958E0F9F1F08950F931F9394
:10071000CF93DF93FB01238121FD03C08FEF9FEF78
:1007200028C022FF16C04681578124813581421797
:10073000530744F4A081B1819D012F5F3F4F318366
:1007400020838C93268137812F5F3F4F3783268309
:1007500010C0EB01092F182F0084F185E02D0995B9
:10076000892BE1F68E819F8101969F838E83812F55
:10077000902FDF91CF911F910F910895FA01AA2731
:10078000283051F1203181F1E8946F936E7F6E5FD4
:100790007F4F8F4F9F4FAF4FB1E03ED0B4E03CD082
:1007A000670F781F891F9A1FA11D680F791F8A1F65
:1007B000911DA11D6A0F711D811D911DA11D20D0CC
:1007C00009F468943F912AE0269F11243019305D86
:1007D0003193DEF6CF010895462F4770405D419377
:1007E000B3E00FD0C9F7F6CF462F4F70405D4A33C4
:1007F00018F0495D31FD4052419302D0A9F7EACF8C
:10080000B4E0A6959795879577956795BA95C9F7BA
:1008100000976105710508959B01AC010A2E0694AD
:100820005795479537952795BA95C9F7620F731F66
:0C083000841F951FA01D0895F894FFCFB1
:10083C0008080C000005010808000003040700006C
:10084C00000300000000C900C200000025642069FC
:10085C0072207472616E736D697474204F4E200037
:06086C004F46460D00009E
:00000001FF
